{
  "_format": "hh-sol-artifact-1",
  "contractName": "DoubleDigiDaigaku",
  "sourceName": "contracts/DoubleDigiDaigaku.sol",
  "abi": [
    {
      "inputs": [
        {
          "internalType": "string",
          "name": "_initBaseURI",
          "type": "string"
        }
      ],
      "stateMutability": "nonpayable",
      "type": "constructor"
    },
    {
      "inputs": [],
      "name": "ApprovalCallerNotOwnerNorApproved",
      "type": "error"
    },
    {
      "inputs": [],
      "name": "ApprovalQueryForNonexistentToken",
      "type": "error"
    },
    {
      "inputs": [],
      "name": "ApproveToCaller",
      "type": "error"
    },
    {
      "inputs": [],
      "name": "BalanceQueryForZeroAddress",
      "type": "error"
    },
    {
      "inputs": [],
      "name": "MintERC2309QuantityExceedsLimit",
      "type": "error"
    },
    {
      "inputs": [],
      "name": "MintToZeroAddress",
      "type": "error"
    },
    {
      "inputs": [],
      "name": "MintZeroQuantity",
      "type": "error"
    },
    {
      "inputs": [],
      "name": "OwnerQueryForNonexistentToken",
      "type": "error"
    },
    {
      "inputs": [],
      "name": "OwnershipNotInitializedForExtraData",
      "type": "error"
    },
    {
      "inputs": [],
      "name": "TransferCallerNotOwnerNorApproved",
      "type": "error"
    },
    {
      "inputs": [],
      "name": "TransferFromIncorrectOwner",
      "type": "error"
    },
    {
      "inputs": [],
      "name": "TransferToNonERC721ReceiverImplementer",
      "type": "error"
    },
    {
      "inputs": [],
      "name": "TransferToZeroAddress",
      "type": "error"
    },
    {
      "inputs": [],
      "name": "URIQueryForNonexistentToken",
      "type": "error"
    },
    {
      "anonymous": false,
      "inputs": [
        {
          "indexed": true,
          "internalType": "address",
          "name": "owner",
          "type": "address"
        },
        {
          "indexed": true,
          "internalType": "address",
          "name": "approved",
          "type": "address"
        },
        {
          "indexed": true,
          "internalType": "uint256",
          "name": "tokenId",
          "type": "uint256"
        }
      ],
      "name": "Approval",
      "type": "event"
    },
    {
      "anonymous": false,
      "inputs": [
        {
          "indexed": true,
          "internalType": "address",
          "name": "owner",
          "type": "address"
        },
        {
          "indexed": true,
          "internalType": "address",
          "name": "operator",
          "type": "address"
        },
        {
          "indexed": false,
          "internalType": "bool",
          "name": "approved",
          "type": "bool"
        }
      ],
      "name": "ApprovalForAll",
      "type": "event"
    },
    {
      "anonymous": false,
      "inputs": [
        {
          "indexed": true,
          "internalType": "uint256",
          "name": "fromTokenId",
          "type": "uint256"
        },
        {
          "indexed": false,
          "internalType": "uint256",
          "name": "toTokenId",
          "type": "uint256"
        },
        {
          "indexed": true,
          "internalType": "address",
          "name": "from",
          "type": "address"
        },
        {
          "indexed": true,
          "internalType": "address",
          "name": "to",
          "type": "address"
        }
      ],
      "name": "ConsecutiveTransfer",
      "type": "event"
    },
    {
      "anonymous": false,
      "inputs": [
        {
          "indexed": true,
          "internalType": "address",
          "name": "previousOwner",
          "type": "address"
        },
        {
          "indexed": true,
          "internalType": "address",
          "name": "newOwner",
          "type": "address"
        }
      ],
      "name": "OwnershipTransferred",
      "type": "event"
    },
    {
      "anonymous": false,
      "inputs": [
        {
          "indexed": true,
          "internalType": "address",
          "name": "from",
          "type": "address"
        },
        {
          "indexed": true,
          "internalType": "address",
          "name": "to",
          "type": "address"
        },
        {
          "indexed": true,
          "internalType": "uint256",
          "name": "tokenId",
          "type": "uint256"
        }
      ],
      "name": "Transfer",
      "type": "event"
    },
    {
      "inputs": [],
      "name": "MaxperWalletWl",
      "outputs": [
        {
          "internalType": "uint256",
          "name": "",
          "type": "uint256"
        }
      ],
      "stateMutability": "view",
      "type": "function"
    },
    {
      "inputs": [],
      "name": "WlSupply",
      "outputs": [
        {
          "internalType": "uint256",
          "name": "",
          "type": "uint256"
        }
      ],
      "stateMutability": "view",
      "type": "function"
    },
    {
      "inputs": [
        {
          "internalType": "address",
          "name": "to",
          "type": "address"
        },
        {
          "internalType": "uint256",
          "name": "tokenId",
          "type": "uint256"
        }
      ],
      "name": "approve",
      "outputs": [],
      "stateMutability": "nonpayable",
      "type": "function"
    },
    {
      "inputs": [
        {
          "internalType": "address",
          "name": "owner",
          "type": "address"
        }
      ],
      "name": "balanceOf",
      "outputs": [
        {
          "internalType": "uint256",
          "name": "",
          "type": "uint256"
        }
      ],
      "stateMutability": "view",
      "type": "function"
    },
    {
      "inputs": [],
      "name": "baseExtension",
      "outputs": [
        {
          "internalType": "string",
          "name": "",
          "type": "string"
        }
      ],
      "stateMutability": "view",
      "type": "function"
    },
    {
      "inputs": [],
      "name": "baseURI",
      "outputs": [
        {
          "internalType": "string",
          "name": "",
          "type": "string"
        }
      ],
      "stateMutability": "view",
      "type": "function"
    },
    {
      "inputs": [],
      "name": "cost",
      "outputs": [
        {
          "internalType": "uint256",
          "name": "",
          "type": "uint256"
        }
      ],
      "stateMutability": "view",
      "type": "function"
    },
    {
      "inputs": [
        {
          "internalType": "uint256",
          "name": "tokenId",
          "type": "uint256"
        }
      ],
      "name": "getApproved",
      "outputs": [
        {
          "internalType": "address",
          "name": "",
          "type": "address"
        }
      ],
      "stateMutability": "view",
      "type": "function"
    },
    {
      "inputs": [
        {
          "internalType": "uint256",
          "name": "_mintAmount",
          "type": "uint256"
        },
        {
          "internalType": "address",
          "name": "destination",
          "type": "address"
        }
      ],
      "name": "gift",
      "outputs": [],
      "stateMutability": "nonpayable",
      "type": "function"
    },
    {
      "inputs": [
        {
          "internalType": "address",
          "name": "owner",
          "type": "address"
        },
        {
          "internalType": "address",
          "name": "operator",
          "type": "address"
        }
      ],
      "name": "isApprovedForAll",
      "outputs": [
        {
          "internalType": "bool",
          "name": "",
          "type": "bool"
        }
      ],
      "stateMutability": "view",
      "type": "function"
    },
    {
      "inputs": [],
      "name": "maxSupply",
      "outputs": [
        {
          "internalType": "uint256",
          "name": "",
          "type": "uint256"
        }
      ],
      "stateMutability": "view",
      "type": "function"
    },
    {
      "inputs": [],
      "name": "merkleRoot",
      "outputs": [
        {
          "internalType": "bytes32",
          "name": "",
          "type": "bytes32"
        }
      ],
      "stateMutability": "view",
      "type": "function"
    },
    {
      "inputs": [],
      "name": "name",
      "outputs": [
        {
          "internalType": "string",
          "name": "",
          "type": "string"
        }
      ],
      "stateMutability": "view",
      "type": "function"
    },
    {
      "inputs": [],
      "name": "notRevealedUri",
      "outputs": [
        {
          "internalType": "string",
          "name": "",
          "type": "string"
        }
      ],
      "stateMutability": "view",
      "type": "function"
    },
    {
      "inputs": [
        {
          "internalType": "address",
          "name": "owner",
          "type": "address"
        }
      ],
      "name": "numberMinted",
      "outputs": [
        {
          "internalType": "uint256",
          "name": "",
          "type": "uint256"
        }
      ],
      "stateMutability": "view",
      "type": "function"
    },
    {
      "inputs": [],
      "name": "owner",
      "outputs": [
        {
          "internalType": "address",
          "name": "",
          "type": "address"
        }
      ],
      "stateMutability": "view",
      "type": "function"
    },
    {
      "inputs": [
        {
          "internalType": "uint256",
          "name": "tokenId",
          "type": "uint256"
        }
      ],
      "name": "ownerOf",
      "outputs": [
        {
          "internalType": "address",
          "name": "",
          "type": "address"
        }
      ],
      "stateMutability": "view",
      "type": "function"
    },
    {
      "inputs": [
        {
          "internalType": "bool",
          "name": "_state",
          "type": "bool"
        }
      ],
      "name": "pause",
      "outputs": [],
      "stateMutability": "nonpayable",
      "type": "function"
    },
    {
      "inputs": [],
      "name": "paused",
      "outputs": [
        {
          "internalType": "bool",
          "name": "",
          "type": "bool"
        }
      ],
      "stateMutability": "view",
      "type": "function"
    },
    {
      "inputs": [],
      "name": "preSale",
      "outputs": [
        {
          "internalType": "bool",
          "name": "",
          "type": "bool"
        }
      ],
      "stateMutability": "view",
      "type": "function"
    },
    {
      "inputs": [
        {
          "internalType": "uint256",
          "name": "tokens",
          "type": "uint256"
        },
        {
          "internalType": "bytes32[]",
          "name": "merkleProof",
          "type": "bytes32[]"
        }
      ],
      "name": "presaleMint",
      "outputs": [],
      "stateMutability": "payable",
      "type": "function"
    },
    {
      "inputs": [],
      "name": "publicSale",
      "outputs": [
        {
          "internalType": "bool",
          "name": "",
          "type": "bool"
        }
      ],
      "stateMutability": "view",
      "type": "function"
    },
    {
      "inputs": [
        {
          "internalType": "uint256",
          "name": "tokens",
          "type": "uint256"
        }
      ],
      "name": "publicSaleMint",
      "outputs": [],
      "stateMutability": "payable",
      "type": "function"
    },
    {
      "inputs": [],
      "name": "renounceOwnership",
      "outputs": [],
      "stateMutability": "nonpayable",
      "type": "function"
    },
    {
      "inputs": [
        {
          "internalType": "bool",
          "name": "_state",
          "type": "bool"
        }
      ],
      "name": "reveal",
      "outputs": [],
      "stateMutability": "nonpayable",
      "type": "function"
    },
    {
      "inputs": [],
      "name": "revealed",
      "outputs": [
        {
          "internalType": "bool",
          "name": "",
          "type": "bool"
        }
      ],
      "stateMutability": "view",
      "type": "function"
    },
    {
      "inputs": [
        {
          "internalType": "address",
          "name": "from",
          "type": "address"
        },
        {
          "internalType": "address",
          "name": "to",
          "type": "address"
        },
        {
          "internalType": "uint256",
          "name": "tokenId",
          "type": "uint256"
        }
      ],
      "name": "safeTransferFrom",
      "outputs": [],
      "stateMutability": "nonpayable",
      "type": "function"
    },
    {
      "inputs": [
        {
          "internalType": "address",
          "name": "from",
          "type": "address"
        },
        {
          "internalType": "address",
          "name": "to",
          "type": "address"
        },
        {
          "internalType": "uint256",
          "name": "tokenId",
          "type": "uint256"
        },
        {
          "internalType": "bytes",
          "name": "_data",
          "type": "bytes"
        }
      ],
      "name": "safeTransferFrom",
      "outputs": [],
      "stateMutability": "nonpayable",
      "type": "function"
    },
    {
      "inputs": [
        {
          "internalType": "address",
          "name": "operator",
          "type": "address"
        },
        {
          "internalType": "bool",
          "name": "approved",
          "type": "bool"
        }
      ],
      "name": "setApprovalForAll",
      "outputs": [],
      "stateMutability": "nonpayable",
      "type": "function"
    },
    {
      "inputs": [
        {
          "internalType": "string",
          "name": "_newBaseExtension",
          "type": "string"
        }
      ],
      "name": "setBaseExtension",
      "outputs": [],
      "stateMutability": "nonpayable",
      "type": "function"
    },
    {
      "inputs": [
        {
          "internalType": "string",
          "name": "_newBaseURI",
          "type": "string"
        }
      ],
      "name": "setBaseURI",
      "outputs": [],
      "stateMutability": "nonpayable",
      "type": "function"
    },
    {
      "inputs": [
        {
          "internalType": "uint256",
          "name": "_newCost",
          "type": "uint256"
        }
      ],
      "name": "setCost",
      "outputs": [],
      "stateMutability": "nonpayable",
      "type": "function"
    },
    {
      "inputs": [
        {
          "internalType": "uint256",
          "name": "_newsupply",
          "type": "uint256"
        }
      ],
      "name": "setMaxsupply",
      "outputs": [],
      "stateMutability": "nonpayable",
      "type": "function"
    },
    {
      "inputs": [
        {
          "internalType": "bytes32",
          "name": "_merkleRoot",
          "type": "bytes32"
        }
      ],
      "name": "setMerkleRoot",
      "outputs": [],
      "stateMutability": "nonpayable",
      "type": "function"
    },
    {
      "inputs": [
        {
          "internalType": "string",
          "name": "_notRevealedURI",
          "type": "string"
        }
      ],
      "name": "setNotRevealedURI",
      "outputs": [],
      "stateMutability": "nonpayable",
      "type": "function"
    },
    {
      "inputs": [
        {
          "internalType": "uint256",
          "name": "_newWlCost",
          "type": "uint256"
        }
      ],
      "name": "setWlCost",
      "outputs": [],
      "stateMutability": "nonpayable",
      "type": "function"
    },
    {
      "inputs": [
        {
          "internalType": "uint256",
          "name": "_limit",
          "type": "uint256"
        }
      ],
      "name": "setWlMaxPerWallet",
      "outputs": [],
      "stateMutability": "nonpayable",
      "type": "function"
    },
    {
      "inputs": [
        {
          "internalType": "uint256",
          "name": "_newsupply",
          "type": "uint256"
        }
      ],
      "name": "setwlsupply",
      "outputs": [],
      "stateMutability": "nonpayable",
      "type": "function"
    },
    {
      "inputs": [
        {
          "internalType": "bytes4",
          "name": "interfaceId",
          "type": "bytes4"
        }
      ],
      "name": "supportsInterface",
      "outputs": [
        {
          "internalType": "bool",
          "name": "",
          "type": "bool"
        }
      ],
      "stateMutability": "view",
      "type": "function"
    },
    {
      "inputs": [],
      "name": "symbol",
      "outputs": [
        {
          "internalType": "string",
          "name": "",
          "type": "string"
        }
      ],
      "stateMutability": "view",
      "type": "function"
    },
    {
      "inputs": [
        {
          "internalType": "bool",
          "name": "_state",
          "type": "bool"
        }
      ],
      "name": "togglepreSale",
      "outputs": [],
      "stateMutability": "nonpayable",
      "type": "function"
    },
    {
      "inputs": [
        {
          "internalType": "bool",
          "name": "_state",
          "type": "bool"
        }
      ],
      "name": "togglepublicSale",
      "outputs": [],
      "stateMutability": "nonpayable",
      "type": "function"
    },
    {
      "inputs": [
        {
          "internalType": "uint256",
          "name": "tokenId",
          "type": "uint256"
        }
      ],
      "name": "tokenURI",
      "outputs": [
        {
          "internalType": "string",
          "name": "",
          "type": "string"
        }
      ],
      "stateMutability": "view",
      "type": "function"
    },
    {
      "inputs": [],
      "name": "totalSupply",
      "outputs": [
        {
          "internalType": "uint256",
          "name": "",
          "type": "uint256"
        }
      ],
      "stateMutability": "view",
      "type": "function"
    },
    {
      "inputs": [
        {
          "internalType": "address",
          "name": "from",
          "type": "address"
        },
        {
          "internalType": "address",
          "name": "to",
          "type": "address"
        },
        {
          "internalType": "uint256",
          "name": "tokenId",
          "type": "uint256"
        }
      ],
      "name": "transferFrom",
      "outputs": [],
      "stateMutability": "nonpayable",
      "type": "function"
    },
    {
      "inputs": [
        {
          "internalType": "address",
          "name": "newOwner",
          "type": "address"
        }
      ],
      "name": "transferOwnership",
      "outputs": [],
      "stateMutability": "nonpayable",
      "type": "function"
    },
    {
      "inputs": [],
      "name": "withdraw",
      "outputs": [],
      "stateMutability": "payable",
      "type": "function"
    },
    {
      "inputs": [],
      "name": "wlcost",
      "outputs": [
        {
          "internalType": "uint256",
          "name": "",
          "type": "uint256"
        }
      ],
      "stateMutability": "view",
      "type": "function"
    }
  ],
  "bytecode": "0x60c06040526005608081905264173539b7b760d91b60a09081526200002891600b9190620001fd565b506618838370f34000600d556000600e8190556107e6600f556101a460105560016011556012805463ffffffff191663010101001790556013553480156200006f57600080fd5b5060405162002877380380620028778339810160408190526200009291620002b9565b6040805180820182526011815270446f75626c654469676944616967616b7560781b6020808301918252835180850190945260048452634444446760e01b908401528151919291620000e791600291620001fd565b508051620000fd906003906020840190620001fd565b5050600160005550620001103362000127565b6001600955620001208162000179565b50620003d2565b600880546001600160a01b038381166001600160a01b0319831681179093556040519116919082907f8be0079c531659141344cd1fd0a4f28419497f9722a3daafe3b4186f6b6457e090600090a35050565b620001836200019c565b80516200019890600a906020840190620001fd565b5050565b6008546001600160a01b03163314620001fb5760405162461bcd60e51b815260206004820181905260248201527f4f776e61626c653a2063616c6c6572206973206e6f7420746865206f776e6572604482015260640160405180910390fd5b565b8280546200020b9062000395565b90600052602060002090601f0160209004810192826200022f57600085556200027a565b82601f106200024a57805160ff19168380011785556200027a565b828001600101855582156200027a579182015b828111156200027a5782518255916020019190600101906200025d565b50620002889291506200028c565b5090565b5b808211156200028857600081556001016200028d565b634e487b7160e01b600052604160045260246000fd5b60006020808385031215620002cd57600080fd5b82516001600160401b0380821115620002e557600080fd5b818501915085601f830112620002fa57600080fd5b8151818111156200030f576200030f620002a3565b604051601f8201601f19908116603f011681019083821181831017156200033a576200033a620002a3565b8160405282815288868487010111156200035357600080fd5b600093505b8284101562000377578484018601518185018701529285019262000358565b82841115620003895760008684830101525b98975050505050505050565b600181811c90821680620003aa57607f821691505b60208210811415620003cc57634e487b7160e01b600052602260045260246000fd5b50919050565b61249580620003e26000396000f3fe6080604052600436106102925760003560e01c80636c2d3c4f1161015a578063c6682862116100c1578063e985e9c51161007a578063e985e9c514610767578063f12f6d5d146107b0578063f2c4ce1e146107d0578063f2fde38b146107f0578063f3257cdd14610810578063fea0e0581461083057600080fd5b8063c6682862146106c9578063c87b56dd146106de578063d5abeb01146106fe578063da3ef23f14610714578063dc33e68114610734578063e3e1e8ef1461075457600080fd5b8063940cd05b11610113578063940cd05b1461062157806395d89b4114610641578063a22cb46514610656578063b3ab66b014610676578063b88d4fde14610689578063bde0608a146106a957600080fd5b80636c2d3c4f1461057857806370a082311461058e578063715018a6146105ae5780637cb64759146105c357806383a076be146105e35780638da5cb5b1461060357600080fd5b80632eb4a7ab116101fe57806351830227116101b757806351830227146104ca57806355f804b3146104e95780635a7adf7f146105095780635c975abb146105295780636352211e146105435780636c0360eb1461056357600080fd5b80632eb4a7ab1461042b57806333bc1c5c146104415780633ccfd60b1461046257806342842e0e1461046a57806344a0d68a1461048a578063458c4f9e146104aa57600080fd5b8063095ea7b311610250578063095ea7b3146103815780630bddb613146103a157806313faede6146103b7578063149835a0146103cd57806318160ddd146103ed57806323b872dd1461040b57600080fd5b806277ec051461029757806301ffc9a7146102c057806302329a29146102f057806306fdde0314610312578063081812fc14610334578063081c8c441461036c575b600080fd5b3480156102a357600080fd5b506102ad60115481565b6040519081526020015b60405180910390f35b3480156102cc57600080fd5b506102e06102db366004611e43565b610850565b60405190151581526020016102b7565b3480156102fc57600080fd5b5061031061030b366004611e75565b6108a2565b005b34801561031e57600080fd5b506103276108bd565b6040516102b79190611ee8565b34801561034057600080fd5b5061035461034f366004611efb565b61094f565b6040516001600160a01b0390911681526020016102b7565b34801561037857600080fd5b50610327610993565b34801561038d57600080fd5b5061031061039c366004611f2b565b610a21565b3480156103ad57600080fd5b506102ad60105481565b3480156103c357600080fd5b506102ad600d5481565b3480156103d957600080fd5b506103106103e8366004611efb565b610ac1565b3480156103f957600080fd5b506102ad600154600054036000190190565b34801561041757600080fd5b50610310610426366004611f55565b610ace565b34801561043757600080fd5b506102ad60135481565b34801561044d57600080fd5b506012546102e0906301000000900460ff1681565b610310610c5f565b34801561047657600080fd5b50610310610485366004611f55565b610cf5565b34801561049657600080fd5b506103106104a5366004611efb565b610d15565b3480156104b657600080fd5b506103106104c5366004611efb565b610d22565b3480156104d657600080fd5b506012546102e090610100900460ff1681565b3480156104f557600080fd5b5061031061050436600461201d565b610d2f565b34801561051557600080fd5b506012546102e09062010000900460ff1681565b34801561053557600080fd5b506012546102e09060ff1681565b34801561054f57600080fd5b5061035461055e366004611efb565b610d4e565b34801561056f57600080fd5b50610327610d59565b34801561058457600080fd5b506102ad600e5481565b34801561059a57600080fd5b506102ad6105a9366004612066565b610d66565b3480156105ba57600080fd5b50610310610db5565b3480156105cf57600080fd5b506103106105de366004611efb565b610dc9565b3480156105ef57600080fd5b506103106105fe366004612081565b610dd6565b34801561060f57600080fd5b506008546001600160a01b0316610354565b34801561062d57600080fd5b5061031061063c366004611e75565b610ed1565b34801561064d57600080fd5b50610327610ef3565b34801561066257600080fd5b506103106106713660046120ad565b610f02565b610310610684366004611efb565b610f98565b34801561069557600080fd5b506103106106a43660046120d7565b611188565b3480156106b557600080fd5b506103106106c4366004611efb565b6111d2565b3480156106d557600080fd5b506103276111df565b3480156106ea57600080fd5b506103276106f9366004611efb565b6111ec565b34801561070a57600080fd5b506102ad600f5481565b34801561072057600080fd5b5061031061072f36600461201d565b61135c565b34801561074057600080fd5b506102ad61074f366004612066565b611377565b610310610762366004612153565b6113a2565b34801561077357600080fd5b506102e06107823660046121d2565b6001600160a01b03918216600090815260076020908152604080832093909416825291909152205460ff1690565b3480156107bc57600080fd5b506103106107cb366004611efb565b61174d565b3480156107dc57600080fd5b506103106107eb36600461201d565b61175a565b3480156107fc57600080fd5b5061031061080b366004612066565b611775565b34801561081c57600080fd5b5061031061082b366004611e75565b6117ee565b34801561083c57600080fd5b5061031061084b366004611e75565b611814565b60006301ffc9a760e01b6001600160e01b03198316148061088157506380ac58cd60e01b6001600160e01b03198316145b8061089c5750635b5e139f60e01b6001600160e01b03198316145b92915050565b6108aa611838565b6012805460ff1916911515919091179055565b6060600280546108cc906121fc565b80601f01602080910402602001604051908101604052809291908181526020018280546108f8906121fc565b80156109455780601f1061091a57610100808354040283529160200191610945565b820191906000526020600020905b81548152906001019060200180831161092857829003601f168201915b5050505050905090565b600061095a82611892565b610977576040516333d1c03960e21b815260040160405180910390fd5b506000908152600660205260409020546001600160a01b031690565b600c80546109a0906121fc565b80601f01602080910402602001604051908101604052809291908181526020018280546109cc906121fc565b8015610a195780601f106109ee57610100808354040283529160200191610a19565b820191906000526020600020905b8154815290600101906020018083116109fc57829003601f168201915b505050505081565b6000610a2c82610d4e565b9050336001600160a01b03821614610a6557610a488133610782565b610a65576040516367d9dca160e11b815260040160405180910390fd5b60008281526006602052604080822080546001600160a01b0319166001600160a01b0387811691821790925591518593918516917f8c5be1e5ebec7d5bd14f71427d1e84f3dd0314c0f7b2291e5b200ac8c7c3b92591a4505050565b610ac9611838565b600f55565b6000610ad9826118c7565b9050836001600160a01b0316816001600160a01b031614610b0c5760405162a1148160e81b815260040160405180910390fd5b60008281526006602052604090208054338082146001600160a01b03881690911417610b5957610b3c8633610782565b610b5957604051632ce44b5f60e11b815260040160405180910390fd5b6001600160a01b038516610b8057604051633a954ecd60e21b815260040160405180910390fd5b8015610b8b57600082555b6001600160a01b038681166000908152600560205260408082208054600019019055918716808252919020805460010190554260a01b17600160e11b17600085815260046020526040902055600160e11b8316610c165760018401600081815260046020526040902054610c14576000548114610c145760008181526004602052604090208490555b505b83856001600160a01b0316876001600160a01b03167fddf252ad1be2c89b69c2b068fc378daa952ba7f163c4a11628f55a4df523b3ef60405160405180910390a4505050505050565b610c67611838565b60026009541415610c935760405162461bcd60e51b8152600401610c8a90612237565b60405180910390fd5b6002600955604051600090339047908381818185875af1925050503d8060008114610cda576040519150601f19603f3d011682016040523d82523d6000602084013e610cdf565b606091505b5050905080610ced57600080fd5b506001600955565b610d1083838360405180602001604052806000815250611188565b505050565b610d1d611838565b600d55565b610d2a611838565b601055565b610d37611838565b8051610d4a90600a906020840190611d94565b5050565b600061089c826118c7565b600a80546109a0906121fc565b60006001600160a01b038216610d8f576040516323d3ad8160e21b815260040160405180910390fd5b506001600160a01b031660009081526005602052604090205467ffffffffffffffff1690565b610dbd611838565b610dc76000611930565b565b610dd1611838565b601355565b610dde611838565b60026009541415610e015760405162461bcd60e51b8152600401610c8a90612237565b600260095581610e535760405162461bcd60e51b815260206004820152601b60248201527f6e65656420746f206d696e74206174206c656173742031204e465400000000006044820152606401610c8a565b6000610e66600154600054036000190190565b600f54909150610e768483612284565b1115610ebd5760405162461bcd60e51b81526020600482015260166024820152751b585e08139195081b1a5b5a5d08195e18d95959195960521b6044820152606401610c8a565b610ec78284611982565b5050600160095550565b610ed9611838565b601280549115156101000261ff0019909216919091179055565b6060600380546108cc906121fc565b6001600160a01b038216331415610f2c5760405163b06307db60e01b815260040160405180910390fd5b3360008181526007602090815260408083206001600160a01b03871680855290835292819020805460ff191686151590811790915590519081529192917f17307eab39ab6107e8899845ad3d59bd9653f200f220920489ca2b5937696c31910160405180910390a35050565b60026009541415610fbb5760405162461bcd60e51b8152600401610c8a90612237565b600260095560125460ff16156110135760405162461bcd60e51b815260206004820152601c60248201527f57524a3a206f6f707320636f6e747261637420697320706175736564000000006044820152606401610c8a565b6012546301000000900460ff1661106c5760405162461bcd60e51b815260206004820152601c60248201527f57524a3a2053616c65204861736e2774207374617274656420796574000000006044820152606401610c8a565b600061107f600154600054036000190190565b9050600082116110d15760405162461bcd60e51b815260206004820181905260248201527f57524a3a206e65656420746f206d696e74206174206c656173742031204e46546044820152606401610c8a565b600f546110de8383612284565b111561111e5760405162461bcd60e51b815260206004820152600f60248201526e15d4928e8815d94814dbdb191bdd5d608a1b6044820152606401610c8a565b81600d5461112c919061229c565b3410156111755760405162461bcd60e51b815260206004820152601760248201527657524a3a20696e73756666696369656e742066756e647360481b6044820152606401610c8a565b61117f3383611982565b50506001600955565b611193848484610ace565b6001600160a01b0383163b156111cc576111af8484848461199c565b6111cc576040516368d2bf6b60e11b815260040160405180910390fd5b50505050565b6111da611838565b601155565b600b80546109a0906121fc565b60606111f782611892565b61125c5760405162461bcd60e51b815260206004820152603060248201527f455243373231414d657461646174613a2055524920717565727920666f72206e60448201526f37b732bc34b9ba32b73a103a37b5b2b760811b6064820152608401610c8a565b601254610100900460ff166112fd57600c8054611278906121fc565b80601f01602080910402602001604051908101604052809291908181526020018280546112a4906121fc565b80156112f15780601f106112c6576101008083540402835291602001916112f1565b820191906000526020600020905b8154815290600101906020018083116112d457829003601f168201915b50505050509050919050565b6000611307611a94565b905060008151116113275760405180602001604052806000815250611355565b8061133184611aa3565b600b604051602001611345939291906122bb565b6040516020818303038152906040525b9392505050565b611364611838565b8051610d4a90600b906020840190611d94565b6001600160a01b0381166000908152600560205260408082205467ffffffffffffffff911c1661089c565b600260095414156113c55760405162461bcd60e51b8152600401610c8a90612237565b600260095560125460ff161561141d5760405162461bcd60e51b815260206004820152601c60248201527f57524a3a206f6f707320636f6e747261637420697320706175736564000000006044820152606401610c8a565b60125462010000900460ff166114755760405162461bcd60e51b815260206004820152601f60248201527f57524a3a2050726573616c65204861736e2774207374617274656420796574006044820152606401610c8a565b6114ea828280806020026020016040519081016040528093929190818152602001838360200280828437600092019190915250506013546040516bffffffffffffffffffffffff193360601b166020820152909250603401905060405160208183030381529060405280519060200120611ba1565b6115365760405162461bcd60e51b815260206004820152601c60248201527f57524a3a20596f7520617265206e6f742057686974656c6973746564000000006044820152606401610c8a565b6000611549600154600054036000190190565b9050601154846115826115593390565b6001600160a01b03166000908152600560205260409081902054901c67ffffffffffffffff1690565b61158c9190612284565b11156115da5760405162461bcd60e51b815260206004820181905260248201527f57524a3a204d6178204e4654205065722057616c6c65742065786365656465646044820152606401610c8a565b6000841161162a5760405162461bcd60e51b815260206004820181905260248201527f57524a3a206e65656420746f206d696e74206174206c656173742031204e46546044820152606401610c8a565b60115484111561167c5760405162461bcd60e51b815260206004820152601d60248201527f57524a3a206d6178206d696e74207065722054782065786365656465640000006044820152606401610c8a565b6010546116898583612284565b11156116e15760405162461bcd60e51b815260206004820152602160248201527f57524a3a2057686974656c697374204d6178537570706c7920657863656564656044820152601960fa1b6064820152608401610c8a565b83600e546116ef919061229c565b3410156117385760405162461bcd60e51b815260206004820152601760248201527657524a3a20696e73756666696369656e742066756e647360481b6044820152606401610c8a565b6117423385611982565b505060016009555050565b611755611838565b600e55565b611762611838565b8051610d4a90600c906020840190611d94565b61177d611838565b6001600160a01b0381166117e25760405162461bcd60e51b815260206004820152602660248201527f4f776e61626c653a206e6577206f776e657220697320746865207a65726f206160448201526564647265737360d01b6064820152608401610c8a565b6117eb81611930565b50565b6117f6611838565b6012805491151563010000000263ff00000019909216919091179055565b61181c611838565b60128054911515620100000262ff000019909216919091179055565b6008546001600160a01b03163314610dc75760405162461bcd60e51b815260206004820181905260248201527f4f776e61626c653a2063616c6c6572206973206e6f7420746865206f776e65726044820152606401610c8a565b6000816001111580156118a6575060005482105b801561089c575050600090815260046020526040902054600160e01b161590565b600081806001116119175760005481101561191757600081815260046020526040902054600160e01b8116611915575b806113555750600019016000818152600460205260409020546118f7565b505b604051636f96cda160e11b815260040160405180910390fd5b600880546001600160a01b038381166001600160a01b0319831681179093556040519116919082907f8be0079c531659141344cd1fd0a4f28419497f9722a3daafe3b4186f6b6457e090600090a35050565b610d4a828260405180602001604052806000815250611bb7565b604051630a85bd0160e11b81526000906001600160a01b0385169063150b7a02906119d190339089908890889060040161237f565b602060405180830381600087803b1580156119eb57600080fd5b505af1925050508015611a1b575060408051601f3d908101601f19168201909252611a18918101906123bc565b60015b611a76573d808015611a49576040519150601f19603f3d011682016040523d82523d6000602084013e611a4e565b606091505b508051611a6e576040516368d2bf6b60e11b815260040160405180910390fd5b805181602001fd5b6001600160e01b031916630a85bd0160e11b1490505b949350505050565b6060600a80546108cc906121fc565b606081611ac75750506040805180820190915260018152600360fc1b602082015290565b8160005b8115611af15780611adb816123d9565b9150611aea9050600a8361240a565b9150611acb565b60008167ffffffffffffffff811115611b0c57611b0c611f91565b6040519080825280601f01601f191660200182016040528015611b36576020820181803683370190505b5090505b8415611a8c57611b4b60018361241e565b9150611b58600a86612435565b611b63906030612284565b60f81b818381518110611b7857611b78612449565b60200101906001600160f81b031916908160001a905350611b9a600a8661240a565b9450611b3a565b600082611bae8584611c24565b14949350505050565b611bc18383611c71565b6001600160a01b0383163b15610d10576000548281035b611beb600086838060010194508661199c565b611c08576040516368d2bf6b60e11b815260040160405180910390fd5b818110611bd8578160005414611c1d57600080fd5b5050505050565b600081815b8451811015611c6957611c5582868381518110611c4857611c48612449565b6020026020010151611d68565b915080611c61816123d9565b915050611c29565b509392505050565b60005481611c925760405163b562e8dd60e01b815260040160405180910390fd5b6001600160a01b03831660008181526005602090815260408083208054680100000000000000018802019055848352600490915281206001851460e11b4260a01b178317905582840190839083907fddf252ad1be2c89b69c2b068fc378daa952ba7f163c4a11628f55a4df523b3ef8180a4600183015b818114611d4157808360007fddf252ad1be2c89b69c2b068fc378daa952ba7f163c4a11628f55a4df523b3ef600080a4600101611d09565b5081611d5f57604051622e076360e81b815260040160405180910390fd5b60005550505050565b6000818310611d84576000828152602084905260409020611355565b5060009182526020526040902090565b828054611da0906121fc565b90600052602060002090601f016020900481019282611dc25760008555611e08565b82601f10611ddb57805160ff1916838001178555611e08565b82800160010185558215611e08579182015b82811115611e08578251825591602001919060010190611ded565b50611e14929150611e18565b5090565b5b80821115611e145760008155600101611e19565b6001600160e01b0319811681146117eb57600080fd5b600060208284031215611e5557600080fd5b813561135581611e2d565b80358015158114611e7057600080fd5b919050565b600060208284031215611e8757600080fd5b61135582611e60565b60005b83811015611eab578181015183820152602001611e93565b838111156111cc5750506000910152565b60008151808452611ed4816020860160208601611e90565b601f01601f19169290920160200192915050565b6020815260006113556020830184611ebc565b600060208284031215611f0d57600080fd5b5035919050565b80356001600160a01b0381168114611e7057600080fd5b60008060408385031215611f3e57600080fd5b611f4783611f14565b946020939093013593505050565b600080600060608486031215611f6a57600080fd5b611f7384611f14565b9250611f8160208501611f14565b9150604084013590509250925092565b634e487b7160e01b600052604160045260246000fd5b600067ffffffffffffffff80841115611fc257611fc2611f91565b604051601f8501601f19908116603f01168101908282118183101715611fea57611fea611f91565b8160405280935085815286868601111561200357600080fd5b858560208301376000602087830101525050509392505050565b60006020828403121561202f57600080fd5b813567ffffffffffffffff81111561204657600080fd5b8201601f8101841361205757600080fd5b611a8c84823560208401611fa7565b60006020828403121561207857600080fd5b61135582611f14565b6000806040838503121561209457600080fd5b823591506120a460208401611f14565b90509250929050565b600080604083850312156120c057600080fd5b6120c983611f14565b91506120a460208401611e60565b600080600080608085870312156120ed57600080fd5b6120f685611f14565b935061210460208601611f14565b925060408501359150606085013567ffffffffffffffff81111561212757600080fd5b8501601f8101871361213857600080fd5b61214787823560208401611fa7565b91505092959194509250565b60008060006040848603121561216857600080fd5b83359250602084013567ffffffffffffffff8082111561218757600080fd5b818601915086601f83011261219b57600080fd5b8135818111156121aa57600080fd5b8760208260051b85010111156121bf57600080fd5b6020830194508093505050509250925092565b600080604083850312156121e557600080fd5b6121ee83611f14565b91506120a460208401611f14565b600181811c9082168061221057607f821691505b6020821081141561223157634e487b7160e01b600052602260045260246000fd5b50919050565b6020808252601f908201527f5265656e7472616e637947756172643a207265656e7472616e742063616c6c00604082015260600190565b634e487b7160e01b600052601160045260246000fd5b600082198211156122975761229761226e565b500190565b60008160001904831182151516156122b6576122b661226e565b500290565b6000845160206122ce8285838a01611e90565b8551918401916122e18184848a01611e90565b8554920191600090600181811c90808316806122fe57607f831692505b85831081141561231c57634e487b7160e01b85526022600452602485fd5b80801561233057600181146123415761236e565b60ff1985168852838801955061236e565b60008b81526020902060005b858110156123665781548a82015290840190880161234d565b505083880195505b50939b9a5050505050505050505050565b6001600160a01b03858116825284166020820152604081018390526080606082018190526000906123b290830184611ebc565b9695505050505050565b6000602082840312156123ce57600080fd5b815161135581611e2d565b60006000198214156123ed576123ed61226e565b5060010190565b634e487b7160e01b600052601260045260246000fd5b600082612419576124196123f4565b500490565b6000828210156124305761243061226e565b500390565b600082612444576124446123f4565b500690565b634e487b7160e01b600052603260045260246000fdfea2646970667358221220f4f4d6a7f510827025c220df0b53a6c8968e58586f6ca4785757d4467f5a5f6c64736f6c63430008090033",
  "linkReferences": {},
  "deployedLinkReferences": {}
}